:1E000000E026E011E014E017E01AE01DE020E023E07F000010A20000000000000000F5
:20E00000CE020010CE04008EE07FBF00106E9F00007EE0297EE0297EE0297EE0297EE029E2
:20E020007EE0297EE07F7EE07F3B2E2F61736D2F746573742E6865780054776F2D50492044
:20E04000526574726F20363830390A42494F53204B45524E454C20762E302E30320A436F65
:20E06000707972696768742032303233206279204A6179204661726965730A0A4F4B00BD8E
:20E08000E21E860ABDE179B60012B70018B60013B700197F001A7F001BC610F70014CC00C9
:20E0A00000FD0016FC0016C30001FD0016108302002D157C0014CC0000FD0016B60018F65A
:20E0C0000019BDE1FFBF001ABDE1F18620F60014ED84B6192827CDBDE1F18620F60015EDE9
:20E0E00084B6192A810D262F3402B60012F60013BDE1FFBF001C108E193CBE001AA681A7A8
:20E10000A0BC001C2DF76FA4BDE2703502BE0012BC001827022003BDE179810D261AB6007F
:20E1200018F60019BDE1FFF60015E701B60012B70018B60013B70019BDE1F18620F60014B9
:20E14000ED847EE0A48EE02A108E1827A680A7A026FA8607B71820B6181F8180270039344C
:20E16000168E04008620F60015ED818C17FF23F935167F00127F00133934364D2762F6003D
:20E18000158D6E810A2719810D27158108272181202D4DED847C0013B60013B118092340F0
:20E1A0007F0013B60012B1180A2C0F7C00122030B60013272B7A00132026B618094CC60240
:20E1C0003D8E0400308B108E0400EC81EDA18C17FF2DF78620F60015EDA1108C17FF2DF83C
:20E1E0003536393416A6802705BDE17920F73516393406B60012F60013BDE1FF35063934DD
:20E200000634068E040048F618095C3D308B35065830858C17FF23038E17FE3506398602CA
:20E22000B7180086A2B70015BDE15F8EE039BDE1E3B60012B70018B60013B700197F001A2D
:20E240007F001B398EE07CBDE1E3860ABDE179398602B7180086A2B70015BDE15FB6001290
:20E26000B70018B60013B700197F001A7F001B39B6193C812010270092860ABDE179BDE30E
:20E280000C81002756810127128102271A8103271F8104273A8105273C204086A2B7001508
:20E2A000BDE15FBDE24439BDE1458602BDE24439B6181F84804D2613BE00108CE07F270B5C
:20E2C000AD9F0010BDE250BDE24439BDE244398600B71820398617B71820398EE344BDE1F5
:20E2E000E3863ABDE1798620BDE1798622BDE1798E193CBDE1E38622BDE179860ABDE1791E
:20E300008EE07CBDE1E3860ABDE179393434860134024F5F8E193C108EE353A68581FF2756
:20E320001C8100271A8A20A1A026035C20ED6CE45FA6A081FF2706810026F620DE6FE435BD
:20E34000023534393F2053796E746178204572726F7200636C73006C6F6164006578656382
:0DE36000007265736574006578697400FFD4
:10FFF000E023E020E01DE01AE017E014E011E0004B
:00E000011F
