:1E000000E026E011E014E017E01AE01DE020E023E09B000010A20000000000000200D7
:20E00000CE020010CE04008EE09BBF00106E9F00007EE0297EE0297EE0297EE0297EE029C6
:20E020007EE0297EE09B7EE09B3B2E2F61736D2F746573742E6865780054776F2D5049200C
:20E04000526574726F20363830390A42494F53204B45524E454C2056302E30330A00456DB2
:20E06000756C6174696F6E20636F6D70696C6564206F6E20000A436F707972696768742037
:20E080002843292032303233206279204A6179204661726965730A0A4F4B00BDE242860A2D
:20E0A000BDE19DB60012B70016B60013B700177F00187F00197F001DB618008408B1001D06
:20E0C0002723B7001DF60014B6001484F0B700145CC40FFA0014F70014B60016F60017BD31
:20E0E000E223BF0018BDE2158620F60014ED84B61A3527C4BDE2158620F60015ED84B61AD9
:20E1000037810D262F3402B60012F60013BDE223BF001A108E1A49BE0018A681A7A0BC0042
:20E120001A2DF76FA4BDE2F73502BE0012BC001627022003BDE19D810D261AB60016F60008
:20E1400017BDE223F60015E701B60012B70016B60013B70017BDE2158620F60014ED847E74
:20E16000E0B88607B7182CB6182B818027068110270A200E8EE4F4BDE20720068EE52BBDDB
:20E18000E2073934168E04008620F60015ED818C17FF23F935167F00127F00133934364D46
:20E1A0002762F600158D6E810A2719810D27158108272181202D4DED847C0013B60013B1D5
:20E1C000180A23407F0013B60012B1180B2C0F7C00122030B60013272B7A00132026B618B7
:20E1E0000A4CC6023D8E0400308B108E0400EC81EDA18C17FF2DF78620F60015EDA1108C39
:20E2000017FF2DF83536393416A6802705BDE19D20F73516393406B60012F60013BDE223E0
:20E22000350639340634068E040048F6180A5C3D308B35065830858C17FF23038E17FE35C8
:20E240000639B6001CB7180186A2B70015BDE1838EE039BDE2078EE05EBDE2078618B7189C
:20E260002C8E1934BDE2078EE075BDE207B60012B70016B60013B700177F00187F001939D4
:20E280008EE098BDE207860ABDE19D39B6001CB71801BDE183B60012B70016B60013B700F6
:20E2A000177F00187F0019397D193410270047B619348A2081612D0A81662E0680618B0A40
:20E2C000200A81302D3081392E2C8030F61935CA20C1612D0AC1662E06C061CB0A200AC17F
:20E2E000302D13C1392E0FC03048484848B70015FA0015F7001539B61A49812010270186CF
:20E30000860ABDE19DBDE4AD81001027014481011027003981021027003D81031027004003
:20E320008104102700658105102700658106102700658107102700A88108102700C0810906
:20E34000102700D2810A102700DD160105BDE2A8BDE183BDE28039BDE1628602BDE2803959
:20E36000B6182B84804D261FBE00108CE09B2717B6182A843FB7182AAD9F0010B61801B16B
:20E38000001C2703BDE28CBDE280398600B7182C398617B7182C39B619348130271281318A
:20E3A000271E8132272A8EE50CBDE207BDE28039B6180184FC8A01B71801B7001C7EE38B2E
:20E3C000B6180184FC8A02B71801B7001C7EE38BB6180184FC8A03B71801B7001C7EE38B68
:20E3E000860CB7182C4F8E1834B71833BDE2074CB1183226F4860ABDE19DBDE28039860EA7
:20E40000B7182CB6182B8408810826068EE544BDE207BDE28039BDE2A88E0401E7818C172D
:20E42000FF23F9BDE28039B6182B84804D261FBE00108CE09B2717B6182A8AC0B7182AADDF
:20E440009F0010B61801B1001C2703BDE28CBDE280398EE4E4BDE207BDE28039863ABDE112
:20E460009D8620BDE19D8622BDE19D8E1A49BDE2078622BDE19D860ABDE19D8EE098BDE251
:20E4800007860ABDE19D3934328E1A49108E1934A680812027058C1B4826F56F1FA680A7D7
:20E4A000A04D2706108C1A3326F1353239BDE4873434860134024F5F8E1A49108EE561A62C
:20E4C000858100271A8A20A1A026035C20F16CE45FA6A081FF2706810026F620E26FE435AB
:20E4E000023534394552524F523A2053796E746178210A004552524F523A2046696C65205E
:20E500004E6F7420466F756E64210A004552524F523A20417267756D656E74206F757420C4
:20E520006F662052616E6765210A004552524F523A2057726F6E672046696C6520547970E0
:20E5400065210A004552524F523A204469726563746F7279204E6F7420466F756E64210AFA
:20E5600000636C73006C6F6164006578656300726573657400657869740073637265656EB7
:15E580000064697200636400636F6C6F7200646562756700FF5B
:10FFF000E023E020E01DE01AE017E014E011E0004B
:00E000011F
