:1E000000E026E011E014E017E01AE01DE020E023E07F000010A20000000000000200F3
:20E00000CE020010CE04008EE07FBF00106E9F00007EE0297EE0297EE0297EE0297EE029E2
:20E020007EE0297EE07F7EE07F3B2E2F61736D2F746573742E6865780054776F2D50492044
:20E04000526574726F20363830390A42494F53204B45524E454C20762E302E30320A436F65
:20E06000707972696768742032303233206279204A6179204661726965730A0A4F4B00BD8E
:20E08000E226860ABDE181B60012B70016B60013B700177F00187F00197F001DB618008480
:20E0A00008B1001D2723B7001DF60014B6001484F0B700145CC40FFA0014F70014B6001645
:20E0C000F60017BDE207BF0018BDE1F98620F60014ED84B61A3527C4BDE1F98620F60015C6
:20E0E000ED84B61A37810D262F3402B60012F60013BDE207BF001A108E1A49BE0018A68141
:20E10000A7A0BC001A2DF76FA4BDE2C43502BE0012BC001627022003BDE181810D261AB680
:20E120000016F60017BDE207F60015E701B60012B70016B60013B70017BDE1F98620F600C4
:20E1400014ED847EE09C8607B7182CB6182B818027068110270A200E8EE4C9BDE1EB2006B7
:20E160008EE500BDE1EB3934168E04008620F60015ED818C17FF23F935167F00127F001343
:20E180003934364D2762F600158D6E810A2719810D27158108272181202D4DED847C00137F
:20E1A000B60013B1180A23407F0013B60012B1180B2C0F7C00122030B60013272B7A001371
:20E1C0002026B6180A4CC6023D8E0400308B108E0400EC81EDA18C17FF2DF78620F600156F
:20E1E000EDA1108C17FF2DF83536393416A6802705BDE18120F73516393406B60012F600C8
:20E2000013BDE207350639340634068E040048F6180A5C3D308B35065830858C17FF230307
:20E220008E17FE350639B6001CB7180186A2B70015BDE1678EE039BDE1EBB60012B7001667
:20E24000B60013B700177F00187F0019398EE07CBDE1EB860ABDE18139B6001CB71801BD05
:20E26000E167B60012B70016B60013B700177F00187F0019397D193410270047B619348AED
:20E280002081612D0A81662E0680618B0A200A81302D3081392E2C8030F61935CA20C16168
:20E2A0002D0AC1662E06C061CB0A200AC1302D13C1392E0FC03048484848B70015FA001559
:20E2C000F7001539B61A4981201027018E860ABDE181BDE48281001027014C8101102700E9
:20E2E0003981021027003D8103102700408104102700698105102700698106102700698100
:20E3000007102700AC8108102700C48109102700D6810A102700E116010DBDE275BDE16718
:20E32000BDE24D39BDE1468602BDE24D39B6182B84804D2623BE00108CE07F271BB6182AA1
:20E34000843FB7182AAD9F0010B61801B1001C2703BDE259BDE24D39BDE24D398600B71848
:20E360002C398617B7182C39B61934813027128131271E8132272A8EE4E1BDE1EBBDE24DB7
:20E3800039B6180184FC8A01B71801B7001C7EE35CB6180184FC8A02B71801B7001C7EE32B
:20E3A0005CB6180184FC8A03B71801B7001C7EE35C860CB7182C4F8E1834B71833BDE1EB84
:20E3C0004CB1183226F4860ABDE181BDE24D39860EB7182CB6182B8408810826068EE519B3
:20E3E000BDE1EBBDE24D39BDE2758E0401E7818C17FF23F9BDE24D39B6182B84804D2623EA
:20E40000BE00108CE07F271BB6182A8AC0B7182AAD9F0010B61801B1001C2703BDE259BDEF
:20E42000E24D39BDE24D398EE4B9BDE1EBBDE24D39863ABDE1818620BDE1818622BDE1810B
:20E440008E1A49BDE1EB8622BDE181860ABDE1818EE07CBDE1EB860ABDE1813934328E1A63
:20E4600049108E1934A680812027058C1B4826F56F1FA680A7A04D2706108C1A3326F135C1
:20E480003239BDE45C3434860134024F5F8E1A49108EE536A6858100271A8A20A1A0260396
:20E4A0005C20F16CE45FA6A081FF2706810026F620E26FE435023534394552524F523A209E
:20E4C00053796E746178210A004552524F523A2046696C65204E6F7420466F756E64210A8E
:20E4E000004552524F523A20417267756D656E74206F7574206F662052616E6765210A0050
:20E500004552524F523A2057726F6E672046696C652054797065210A004552524F523A2099
:20E520004469726563746F7279204E6F7420466F756E64210A00636C73006C6F6164006547
:20E5400078656300726573657400657869740073637265656E0064697200636400636F6CDA
:0AE560006F7200646562756700FFCA
:10FFF000E023E020E01DE01AE017E014E011E0004B
:00E000011F
