:10000000E026E011E014E017E01AE01DE020E02314
:12001200E114E12EE1D4000010A200000000000002006F
:20E00000CE020010CE04008EE02ABF00106E9F00007EE0297EE0297EE0297EE0297EE02937
:20E020007EE0297EE02A7EE02A3BBDE1DA860AAD9F0014B60018B7001CB60019B7001D7FE3
:20E04000001E7F001F7F0023B618008408B100232723B70023F6001AB6001A84F0B7001AEB
:20E060005CC40FFA001AF7001AB6001CF6001DBDE1B5BF001EBDE1A78620F6001AED84B615
:20E080001A5227C4BDE1A78620F6001BED84B61A54810D262F3402B60018F60019BDE1B54F
:20E0A000BF0020108E1A66BE001EA681A7A0BC00202DF76FA4BDE2923502BE0018BC001CF0
:20E0C00027022004AD9F0014810D261AB6001CF6001DBDE1B5F6001BE701B60018B7001CF3
:20E0E000B60019B7001DBDE1A78620F6001AED847EE0488607B71849B61848818027068101
:20E1000010270A200E8EE497BDE19820068EE4CEBDE1983934168E04008620F6001BED817B
:20E120008C17FF23F935167F00187F00193934364D2762F6001B8D6F810A2719810D27158C
:20E140008108272181202D4DED847C0019B60019B1180A23407F0019B60018B1180B2C0F53
:20E160007C00182030B60019272B7A00192026B6180A4CC6023D8E0400308B108E0400ECBD
:20E1800081EDA18C17FF2DF78620F6001BEDA1108C17FF2DF83536393416A6802706AD9F01
:20E1A000001420F63516393406B60018F60019BDE1B5350639340634068E040048F6180A6D
:20E1C0005C3D308B35065830858C17FF23038E17FE3506398617B7184939B60022B718012E
:20E1E00086A2B7001BAD9F00128EE547BDE1988EE56CBDE1988618B718498E1951BDE198DE
:20E200008EE576BDE198B60018B7001CB60019B7001D7F001E7F001F398EE598BDE1988660
:20E220000AAD9F001439B60022B71801AD9F0012B60018B7001CB60019B7001D7F001E7FD5
:20E24000001F397D195110270047B619518A2081612D0A81662E0680618B0A200A81302D85
:20E260003081392E2C8030F61952CA20C1612D0AC1662E06C061CB0A200AC1302D13C13960
:20E280002E0FC03048484848B7001BFA001BF7001B39B61A6681201027018E860AAD9F0086
:20E2A00014BDE45081001027014581011027003981021027003E81031027004181041027B9
:20E2C00000668105102700668106102700658107102700A88108102700C18109102700D316
:20E2E000810A102700DE160106BDE243AD9F0012BDE21939BDE0F38602BDE21939B6184811
:20E3000084804D261FBE00108CE02A2717B6182A843FB7182AAD9F0010B61801B1002227EC
:20E3200003BDE226BDE219398600B7184939AD9F001639B61951813027128131271E8132FE
:20E34000272A8EE4AFBDE198BDE21939B6180184FC8A01B71801B700227EE328B6180184C5
:20E36000FC8A02B71801B700227EE328B6180184FC8A03B71801B700227EE328860CB71874
:20E38000494F8E1851B71850BDE1984CB1184F26F4860AAD9F0014BDE21939860EB718498E
:20E3A000B618488408810826068EE4E7BDE198BDE21939BDE2438E0401E7818C17FF23F9EB
:20E3C000BDE21939B6184884804D261FBE00108CE02A2717B6182A8AC0B7182AAD9F001067
:20E3E000B61801B100222703BDE226BDE219398EE487BDE198BDE21939863AAD9F001486D5
:20E4000020AD9F00148622AD9F00148E1A66BDE1988622AD9F0014860AAD9F00148EE5982D
:20E42000BDE198860AAD9F00143934328E1A66108E1951A680812027058C1B6526F56F1F59
:20E44000A680A7A04D2706108C1A5026F1353239BDE42A3434860134024F5F8E1A66108ECE
:20E46000E504A6858100271A8A20A1A026035C20F16CE45FA6A081FF2706810026F620E204
:20E480006FE435023534394552524F523A2053796E746178210A004552524F523A20466927
:20E4A0006C65204E6F7420466F756E64210A004552524F523A20417267756D656E74206F3D
:20E4C0007574206F662052616E6765210A004552524F523A2057726F6E672046696C652075
:20E4E00054797065210A004552524F523A204469726563746F7279204E6F7420466F756EAD
:20E5000064210A00636C73006C6F61640065786563007265736574006578697400736372C0
:20E5200065656E0064697200636400636F6C6F7200646562756700FF2E2F61736D2F7465D2
:20E5400073742E6865780054776F2D504920526574726F20363830390A42494F53204B4557
:20E56000524E454C2056302E30330A00436F6D70696C656420000A436F7079726967687419
:1BE580002843292032303233206279204A6179204661726965730A0A4F4B009E
:10FFF000E023E020E01DE01AE017E014E011E0004B
:00E000011F
