:12000000E020E00BE00EE011E014E017E01AE01DE078EA
:20E00000CE020010CE04006E9F00007EE0237EE0237EE0237EE0237EE0237EE0237EE07865
:20E020007EE0783B2E2F61736D2F746573742E6865780054776F2D504920526574726F2083
:20E04000363830390042494F53204B45524E454C20762E302E303100436F70797269676813
:20E06000742032303233206279204A617920466172696573004F4B00BDE0DA8602B7180024
:20E080008E04008620C6A2ED818C17FF23F9108EE0338E0400BDE0D1108EE0458E0480BD71
:20E0A000E0D1108EE0588E0500BDE0D1108EE0758E0600BDE0D18E06808620A784E601CB4C
:20E0C00001C40FE701108E4000313F26FC20EC20FEA6A02704A78120F8398EE024108E18B8
:18E0E00027A680A7A026FA8607B71820B6181F81802704AD9F0010394A
:10FFF000E01DE01AE017E014E011E00EE00BE00075
:00E000011F
