:20000000E026E011E014E017E01AE01DE020E023E08DE177E191E237000010A20000000002
:0400200000000200DA
:20E00000CE020010CE04008EE08DBF00106E9F00007EE0297EE0297EE0297EE0297EE029D4
:20E020007EE0297EE08D7EE08D3B2E2F61736D2F746573742E6865780054776F2D50492028
:20E04000526574726F20363830390A42494F53204B45524E454C2056302E30330A00436FB2
:20E060006D70696C656420000A436F707972696768742843292032303233206279204A6101
:20E0800079204661726965730A0A4F4B00BDE23D860AAD9F0014B60018B7001CB60019B7EC
:20E0A000001D7F001E7F001F7F0023B618008408B100232723B70023F6001AB6001A84F0C0
:20E0C000B7001A5CC40FFA001AF7001AB6001CF6001DBDE218BF001EBDE20A8620F6001A43
:20E0E000ED84B61A3527C4BDE20A8620F6001BED84B61A37810D262F3402B60018F60019F1
:20E10000BDE218BF0020108E1A49BE001EA681A7A0BC00202DF76FA4BDE2F53502BE00186A
:20E12000BC001C27022004AD9F0014810D261AB6001CF6001DBDE218F6001BE701B6001829
:20E14000B7001CB60019B7001DBDE20A8620F6001AED847EE0AB8607B7182CB6182B8180EE
:20E1600027068110270A200E8EE4FABDE1FB20068EE531BDE1FB3934168E04008620F60069
:20E180001BED818C17FF23F935167F00187F00193934364D2762F6001B8D6F810A271981EC
:20E1A0000D27158108272181202D4DED847C0019B60019B1180A23407F0019B60018B118F0
:20E1C0000B2C0F7C00182030B60019272B7A00192026B6180A4CC6023D8E0400308B108E07
:20E1E0000400EC81EDA18C17FF2DF78620F6001BEDA1108C17FF2DF83536393416A6802703
:20E2000006AD9F001420F63516393406B60018F60019BDE218350639340634068E0400486E
:20E22000F6180A5C3D308B35065830858C17FF23038E17FE3506398617B7182C39B60022A2
:20E24000B7180186A2B7001BAD9F00128EE039BDE1FB8EE05EBDE1FB8618B7182C8E19347D
:20E26000BDE1FB8EE068BDE1FBB60018B7001CB60019B7001D7F001E7F001F398EE08ABD29
:20E28000E1FB860AAD9F001439B60022B71801AD9F0012B60018B7001CB60019B7001D7FB0
:20E2A000001E7F001F397D193410270047B619348A2081612D0A81662E0680618B0A200AA0
:20E2C00081302D3081392E2C8030F61935CA20C1612D0AC1662E06C061CB0A200AC1302D4C
:20E2E00013C1392E0FC03048484848B7001BFA001BF7001B39B61A4981201027018E860A82
:20E30000AD9F0014BDE4B381001027014581011027003981021027003E81031027004181E4
:20E3200004102700668105102700668106102700658107102700A88108102700C181091074
:20E340002700D3810A102700DE160106BDE2A6AD9F0012BDE27C39BDE1568602BDE27C393F
:20E36000B6182B84804D261FBE00108CE08D2717B6182A843FB7182AAD9F0010B61801B179
:20E3800000222703BDE289BDE27C398600B7182C39AD9F001639B61934813027128131279A
:20E3A0001E8132272A8EE512BDE1FBBDE27C39B6180184FC8A01B71801B700227EE38BB6A4
:20E3C000180184FC8A02B71801B700227EE38BB6180184FC8A03B71801B700227EE38B868C
:20E3E0000CB7182C4F8E1834B71833BDE1FB4CB1183226F4860AAD9F0014BDE27C39860E19
:20E40000B7182CB6182B8408810826068EE54ABDE1FBBDE27C39BDE2A68E0401E7818C173A
:20E42000FF23F9BDE27C39B6182B84804D261FBE00108CE08D2717B6182A8AC0B7182AADF1
:20E440009F0010B61801B100222703BDE289BDE27C398EE4EABDE1FBBDE27C39863AAD9F70
:20E4600000148620AD9F00148622AD9F00148E1A49BDE1FB8622AD9F0014860AAD9F0014F8
:20E480008EE08ABDE1FB860AAD9F00143934328E1A49108E1934A680812027058C1B482678
:20E4A000F56F1FA680A7A04D2706108C1A3326F1353239BDE48D3434860134024F5F8E1AA9
:20E4C00049108EE567A6858100271A8A20A1A026035C20F16CE45FA6A081FF270681002652
:20E4E000F620E26FE435023534394552524F523A2053796E746178210A004552524F523A9E
:20E500002046696C65204E6F7420466F756E64210A004552524F523A20417267756D656E10
:20E5200074206F7574206F662052616E6765210A004552524F523A2057726F6E6720466902
:20E540006C652054797065210A004552524F523A204469726563746F7279204E6F742046AD
:20E560006F756E64210A00636C73006C6F6164006578656300726573657400657869740056
:1BE5800073637265656E0064697200636400636F6C6F7200646562756700FFD5
:10FFF000E023E020E01DE01AE017E014E011E0004B
:00E000011F
