:1F000000E026E011E014E017E01AE01DE020E023E07F000010A2000000000000000002F2
:20E00000CE020010CE04008EE07FBF00106E9F00007EE0297EE0297EE0297EE0297EE029E2
:20E020007EE0297EE07F7EE07F3B2E2F61736D2F746573742E6865780054776F2D50492044
:20E04000526574726F20363830390A42494F53204B45524E454C20762E302E30320A436F65
:20E06000707972696768742032303233206279204A6179204661726965730A0A4F4B00BD8E
:20E08000E217860ABDE172B60012B70018B60013B700197F001A7F001BC610F70014CC00D7
:20E0A00000FD0016FC0016C30001FD0016108302002D157C0014CC0000FD0016B60018F65A
:20E0C0000019BDE1F8BF001ABDE1EA8620F60014ED84B61A2A27CDBDE1EA8620F60015EDFB
:20E0E00084B61A2C810D262F3402B60012F60013BDE1F8BF001C108E1A3EBE001AA681A7A9
:20E10000A0BC001C2DF76FA4BDE26B3502BE0012BC001827022003BDE172810D261AB6008B
:20E1200018F60019BDE1F8F60015E701B60012B70018B60013B70019BDE1EA8620F60014C7
:20E14000ED847EE0A48607B71820B6181F818026068EE400BDE1DC3934168E04008620F619
:20E160000015ED818C17FF23F935167F00127F00133934364D2762F600158D6E810A2719A6
:20E18000810D27158108272181202D4DED847C0013B60013B1180923407F0013B60012B1C0
:20E1A000180A2C0F7C00122030B60013272B7A00132026B618094CC6023D8E0400308B10B1
:20E1C0008E0400EC81EDA18C17FF2DF78620F60015EDA1108C17FF2DF83536393416A680C2
:20E1E0002705BDE17220F73516393406B60012F60013BDE1F8350639340634068E040048E5
:20E20000F618095C3D308B35065830858C17FF23038E17FE350639B6001EB7180086A2B7EA
:20E220000015BDE1588EE039BDE1DCB60012B70018B60013B700197F001A7F001B398EE0A8
:20E240007CBDE1DC860ABDE17239B6001EB7180086A2B70015BDE158B60012B70018B60015
:20E2600013B700197F001A7F001B39B61A3E81201027011E860ABDE172BDE3B98100102799
:20E2800000DC810127238102272B810327308104274B8105274D8106274F810710270092E7
:20E2A0008108102700AA1600B586A2B70015BDE158BDE23E39BDE1458602BDE23E39B618DA
:20E2C0001F84804D2613BE00108CE07F270BAD9F0010BDE24ABDE23E39BDE23E398600B7FC
:20E2E0001820398617B7182039B61929813027128131271E8132272A8EE418BDE1DCBDE268
:20E300003E39B6180084FC8A01B71800B7001E7EE2DDB6180084FC8A02B71800B7001E7ED0
:20E32000E2DDB6180084FC8A03B71800B7001E7EE2DD860CB718204F8E1829B71828BDE12E
:20E34000DC4CB1182726F4860ABDE172BDE23E39860EB71820860ABDE172BDE23E398EE32B
:20E36000F0BDE1DCBDE23E39863ABDE1728620BDE1728622BDE1728E1A3EBDE1DC8622BD1A
:20E38000E172860ABDE1728EE07CBDE1DC860ABDE1723934328E1A3E108E1929A68081205A
:20E3A00027058C1B3D26F56F1FA680A7A04D2706108C1A2826F1353239BDE3933434860106
:20E3C00034024F5F8E1A3E108EE437A6858100271A8A20A1A026035C20F16CE45FA6A081D6
:20E3E000FF2706810026F620E26FE435023534394552524F523A2053796E746178210A0090
:20E400004552524F523A2046696C65204E6F7420466F756E64210A004552524F523A2041DB
:20E420007267756D656E74206F7574206F662052616E6765210A00636C73006C6F61640053
:1FE440006578656300726573657400657869740073637265656E0064697200636400FFB6
:10FFF000E023E020E01DE01AE017E014E011E0004B
:00E000011F
