:1E000000E020E00BE00EE011E014E017E01AE01DE079000010A200000000000000002B
:20E00000CE020010CE04006E9F00007EE0237EE0237EE0237EE0237EE0237EE0237EE07964
:20E020007EE0793B2E2F61736D2F746573742E6865780054776F2D504920526574726F2082
:20E04000363830390A42494F53204B45524E454C20762E302E30320A436F707972696768FE
:20E06000742032303233206279204A6179204661726965730A0A4F4B00BDE21C860ABDE1F5
:20E0800077B60012B70018B60013B700197F001A7F001BC610F70014CC0000FD0016FC00EA
:20E0A00016C30001FD0016108302002D157C0014CC0000FD0016B60018F60019BDE1FDBFF6
:20E0C000001ABDE1EF8620F60014ED84B6192827CDBDE1EF8620F60015ED84B6192A810D57
:20E0E000262F3402B60012F60013BDE1FDBF001C108E193CBE001AA681A7A0BC001C2DF719
:20E100006FA4BDE2423502BE0012BC001827022003BDE177810D261AB60018F60019BDE186
:20E12000FDF60015E701B60012B70018B60013B70019BDE1EF8620F60014ED847EE09E8E87
:20E14000E024108E1827A680A7A026FA8607B71820B6181F81802704AD9F00103934168E4F
:20E1600004008620F60015ED818C17FF23F935167F00127F00133934364D2762F600158D3F
:20E180006E810A2719810D27158108272181202D4DED847C0013B60013B1180923407F0013
:20E1A00013B60012B1180A2C0F7C00122030B60013272B7A00132026B618094CC6023D8EF4
:20E1C0000400308B108E0400EC81EDA18C17FF2DF78620F60015EDA1108C17FF2DF835369C
:20E1E000393416A6802705BDE17720F73516393406B60012F60013BDE1FD35063934063412
:20E20000068E040048F618095C3D308B35065830858C17FF23038E17FE3506398602B71835
:20E220000086A2B70015BDE15D8EE033BDE1E1B60012B70018B60013B700197F001A7F0087
:20E240001B39B6193C81202750860ABDE177BDE29AB6193C8A20816C260FBDE13FB61928BE
:20E260002737B6192ABDE21C398EE2ACBDE1E1863ABDE1778620BDE1778622BDE1778E19C4
:20E280003CBDE1E18622BDE177860ABDE1778EE076BDE1E1860ABDE1773934026FE48EE227
:20E2A000BB108E193C35023935024F393F2053796E746178204572726F7200636C73006CC3
:0FE2C0006F61640065786563006578697400FFBD
:10FFF000E01DE01AE017E014E011E00EE00BE00075
:00E000011F
