:1E000000E026E011E014E017E01AE01DE020E023E07F000010A20000000000000200F3
:20E00000CE020010CE04008EE07FBF00106E9F00007EE0297EE0297EE0297EE0297EE029E2
:20E020007EE0297EE07F7EE07F3B2E2F61736D2F746573742E6865780054776F2D50492044
:20E04000526574726F20363830390A42494F53204B45524E454C20762E302E30320A436F65
:20E06000707972696768742032303233206279204A6179204661726965730A0A4F4B00BD8E
:20E08000E226860ABDE181B60012B70016B60013B700177F00187F00197F001DB618008480
:20E0A00008B1001D2723B7001DF60014B6001484F0B700145CC40FFA0014F70014B6001645
:20E0C000F60017BDE207BF0018BDE1F98620F60014ED84B61A3427C4BDE1F98620F60015C7
:20E0E000ED84B61A36810D262F3402B60012F60013BDE207BF001A108E1A48BE0018A68143
:20E10000A7A0BC001A2DF76FA4BDE27A3502BE0012BC001627022003BDE181810D261AB6CA
:20E120000016F60017BDE207F60015E701B60012B70016B60013B70017BDE1F98620F600C4
:20E1400014ED847EE09C8607B7182AB61829818027068110270A200E8EE475BDE1EB20060F
:20E160008EE4ACBDE1EB3934168E04008620F60015ED818C17FF23F935167F00127F001398
:20E180003934364D2762F600158D6E810A2719810D27158108272181202D4DED847C00137F
:20E1A000B60013B1180A23407F0013B60012B1180B2C0F7C00122030B60013272B7A001371
:20E1C0002026B6180A4CC6023D8E0400308B108E0400EC81EDA18C17FF2DF78620F600156F
:20E1E000EDA1108C17FF2DF83536393416A6802705BDE18120F73516393406B60012F600C8
:20E2000013BDE207350639340634068E040048F6180A5C3D308B35065830858C17FF230307
:20E220008E17FE350639B6001CB7180186A2B70015BDE1678EE039BDE1EBB60012B7001667
:20E24000B60013B700177F00187F0019398EE07CBDE1EB860ABDE18139B6001CB71801863C
:20E26000A2B70015BDE167B60012B70016B60013B700177F00187F001939B61A48812010CE
:20E28000270184860ABDE181BDE42E81001027014281011027002D810210270083810310A2
:20E2A00027008681041027009F81051027009F81061027009F8107102700E281081027003C
:20E2C000FA16010F7D193310270049B619338A2081612D0A81662E0680618B0A200A8130A4
:20E2E0002D3281392E2E8030F61934CA20C1612D0AC1662E06C061CB0A200AC1302D15C104
:20E30000392E11C03048484848B70015FA0015F70015200586A2B70015BDE167BDE24D394B
:20E32000BDE1468602BDE24D39B6182984804D2613BE00108CE07F270BAD9F0010BDE2598C
:20E34000BDE24D39BDE24D398600B7182A398617B7182A39B61933813027128131271E8188
:20E3600032272A8EE48DBDE1EBBDE24D39B6180184FC8A01B71801B7001C7EE348B6180178
:20E3800084FC8A02B71801B7001C7EE348B6180184FC8A03B71801B7001C7EE348860CB7B4
:20E3A000182A4F8E1833B71832BDE1EB4CB1183126F4860ABDE181BDE24D39860EB7182AA8
:20E3C000B618298408810826068EE4C5BDE1EBBDE24D398EE465BDE1EBBDE24D39863ABD1E
:20E3E000E1818620BDE1818622BDE1818E1A48BDE1EB8622BDE181860ABDE1818EE07CBD99
:20E40000E1EB860ABDE1813934328E1A48108E1933A680812027058C1B4726F56F1FA68058
:20E42000A7A04D2706108C1A3226F1353239BDE4083434860134024F5F8E1A48108EE4E2AC
:20E44000A6858100271A8A20A1A026035C20F16CE45FA6A081FF2706810026F620E26FE4BA
:20E4600035023534394552524F523A2053796E746178210A004552524F523A2046696C65C9
:20E48000204E6F7420466F756E64210A004552524F523A20417267756D656E74206F757445
:20E4A000206F662052616E6765210A004552524F523A2057726F6E672046696C65205479B1
:20E4C0007065210A004552524F523A204469726563746F7279204E6F7420466F756E642115
:20E4E0000A00636C73006C6F6164006578656300726573657400657869740073637265659C
:0AE500006E0064697200636400FF9E
:10FFF000E023E020E01DE01AE017E014E011E0004B
:00E000011F
