:1F000000E026E011E014E017E01AE01DE020E023E07F000010A2000000000000000002F2
:20E00000CE020010CE04008EE07FBF00106E9F00007EE0297EE0297EE0297EE0297EE029E2
:20E020007EE0297EE07F7EE07F3B2E2F61736D2F746573742E6865780054776F2D50492044
:20E04000526574726F20363830390A42494F53204B45524E454C20762E302E30320A436F65
:20E06000707972696768742032303233206279204A6179204661726965730A0A4F4B00BD8E
:20E08000E225860ABDE180B60012B70018B60013B700197F001A7F001BC610F70014CC00BB
:20E0A00000FD0016FC0016C30001FD0016108302002D157C0014CC0000FD0016B60018F65A
:20E0C0000019BDE206BF001ABDE1F88620F60014ED84B61A2A27CDBDE1F88620F60015EDD0
:20E0E00084B61A2C810D262F3402B60012F60013BDE206BF001C108E1A3EBE001AA681A79A
:20E10000A0BC001C2DF76FA4BDE2793502BE0012BC001827022003BDE180810D261AB6006F
:20E1200018F60019BDE206F60015E701B60012B70018B60013B70019BDE1F88620F60014AA
:20E14000ED847EE0A48607B71820B6181F818027068110270A200E8EE418BDE1EA20068EFF
:20E16000E44FBDE1EA3934168E04008620F60015ED818C17FF23F935167F00127F0013394B
:20E1800034364D2762F600158D6E810A2719810D27158108272181202D4DED847C0013B602
:20E1A0000013B1180923407F0013B60012B1180A2C0F7C00122030B60013272B7A00132009
:20E1C00026B618094CC6023D8E0400308B108E0400EC81EDA18C17FF2DF78620F60015EDA3
:20E1E000A1108C17FF2DF83536393416A6802705BDE18020F73516393406B60012F60013A3
:20E20000BDE206350639340634068E040048F618095C3D308B35065830858C17FF23038E8E
:20E2200017FE350639B6001EB7180086A2B70015BDE1668EE039BDE1EAB60012B70018B63E
:20E240000013B700197F001A7F001B398EE07CBDE1EA860ABDE18039B6001EB7180086A24B
:20E26000B70015BDE166B60012B70018B60013B700197F001A7F001B39B61A3E812010274C
:20E280000128860ABDE180BDE3D18100102700E6810127238102272B810327308104274B25
:20E2A0008105274D8106274F8107102700928108102700AA1600BF86A2B70015BDE166BD22
:20E2C000E24C39BDE1458602BDE24C39B6181F84804D2613BE00108CE07F270BAD9F00108A
:20E2E000BDE258BDE24C39BDE24C398600B71820398617B7182039B61929813027128131D8
:20E30000271E8132272A8EE430BDE1EABDE24C39B6180084FC8A01B71800B7001E7EE2EB9E
:20E32000B6180084FC8A02B71800B7001E7EE2EBB6180084FC8A03B71800B7001E7EE2EB4A
:20E34000860CB718204F8E1829B71828BDE1EA4CB1182726F4860ABDE180BDE24C39860EE3
:20E36000B71820B6181F8408810826068EE468BDE1EABDE24C398EE408BDE1EABDE24C39D4
:20E38000863ABDE1808620BDE1808622BDE1808E1A3EBDE1EA8622BDE180860ABDE1808EA5
:20E3A000E07CBDE1EA860ABDE1803934328E1A3E108E1929A680812027058C1B3D26F56F05
:20E3C0001FA680A7A04D2706108C1A2826F1353239BDE3AB3434860134024F5F8E1A3E108E
:20E3E0008EE485A6858100271A8A20A1A026035C20F16CE45FA6A081FF2706810026F62059
:20E40000E26FE435023534394552524F523A2053796E746178210A004552524F523A20462E
:20E42000696C65204E6F7420466F756E64210A004552524F523A20417267756D656E7420C3
:20E440006F7574206F662052616E6765210A004552524F523A2057726F6E672046696C65A6
:20E460002054797065210A004552524F523A204469726563746F7279204E6F7420466F757B
:20E480006E64210A00636C73006C6F61640065786563007265736574006578697400736345
:0DE4A0007265656E0064697200636400FFC0
:10FFF000E023E020E01DE01AE017E014E011E0004B
:00E000011F
