:1E000000E026E011E014E017E01AE01DE020E023E07F000010A20000000000000200F3
:20E00000CE020010CE04008EE07FBF00106E9F00007EE0297EE0297EE0297EE0297EE029E2
:20E020007EE0297EE07F7EE07F3B2E2F61736D2F746573742E6865780054776F2D50492044
:20E04000526574726F20363830390A42494F53204B45524E454C20762E302E30320A436F65
:20E06000707972696768742032303233206279204A6179204661726965730A0A4F4B00BD8E
:20E08000E226860ABDE181B60012B70016B60013B700177F00187F00197F001DB618008480
:20E0A00008B1001D2723B7001DF60014B6001484F0B700145CC40FFA0014F70014B6001645
:20E0C000F60017BDE207BF0018BDE1F98620F60014ED84B61A3627C4BDE1F98620F60015C5
:20E0E000ED84B61A38810D262F3402B60012F60013BDE207BF001A108E1A4ABE0018A6813F
:20E10000A7A0BC001A2DF76FA4BDE2C43502BE0012BC001627022003BDE181810D261AB680
:20E120000016F60017BDE207F60015E701B60012B70016B60013B70017BDE1F98620F600C4
:20E1400014ED847EE09C8607B7182CB6182B818027068110270A200E8EE484BDE1EB2006FC
:20E160008EE4BBBDE1EB3934168E04008620F60015ED818C17FF23F935167F00127F001389
:20E180003934364D2762F600158D6E810A2719810D27158108272181202D4DED847C00137F
:20E1A000B60013B1180A23407F0013B60012B1180B2C0F7C00122030B60013272B7A001371
:20E1C0002026B6180A4CC6023D8E0400308B108E0400EC81EDA18C17FF2DF78620F600156F
:20E1E000EDA1108C17FF2DF83536393416A6802705BDE18120F73516393406B60012F600C8
:20E2000013BDE207350639340634068E040048F6180A5C3D308B35065830858C17FF230307
:20E220008E17FE350639B6001CB7180186A2B70015BDE1678EE039BDE1EBB60012B7001667
:20E24000B60013B700177F00187F0019398EE07CBDE1EB860ABDE18139B6001CB71801BD05
:20E26000E167B60012B70016B60013B700177F00187F0019397D193510270047B619358AEB
:20E280002081612D0A81662E0680618B0A200A81302D3081392E2C8030F61936CA20C16167
:20E2A0002D0AC1662E06C061CB0A200AC1302D13C1392E0FC03048484848B70015FA001559
:20E2C000F7001539B61A4A812010270149860ABDE181BDE43D8100102701078101102700B7
:20E2E0003381021027003781031027003A8104102700538105102700538106102700538154
:20E3000007102700968108102700AE8109102700C01600CEBDE275BDE167BDE24D39BDE17A
:20E32000468602BDE24D39B6182B84804D2613BE00108CE07F270BAD9F0010BDE259BDE289
:20E340004D39BDE24D398600B7182C398617B7182C39B61935813027128131271E813227C8
:20E360002A8EE49CBDE1EBBDE24D39B6180184FC8A01B71801B7001C7EE346B6180184FC44
:20E380008A02B71801B7001C7EE346B6180184FC8A03B71801B7001C7EE346860CB7182CF4
:20E3A0004F8E1835B71834BDE1EB4CB1183326F4860ABDE181BDE24D39860EB7182CB61814
:20E3C0002B8408810826068EE4D4BDE1EBBDE24D39BDE2758E0401E7818C17FF23F9BDE271
:20E3E0004D398EE474BDE1EBBDE24D39863ABDE1818620BDE1818622BDE1818E1A4ABDE108
:20E40000EB8622BDE181860ABDE1818EE07CBDE1EB860ABDE1813934328E1A4A108E1935FC
:20E42000A680812027058C1B4926F56F1FA680A7A04D2706108C1A3426F1353239BDE41710
:20E440003434860134024F5F8E1A4A108EE4F1A6858100271A8A20A1A026035C20F16CE4C6
:20E460005FA6A081FF2706810026F620E26FE435023534394552524F523A2053796E74618C
:20E4800078210A004552524F523A2046696C65204E6F7420466F756E64210A004552524FA5
:20E4A000523A20417267756D656E74206F7574206F662052616E6765210A004552524F523E
:20E4C0003A2057726F6E672046696C652054797065210A004552524F523A2044697265637D
:20E4E000746F7279204E6F7420466F756E64210A00636C73006C6F616400657865630072BD
:1EE500006573657400657869740073637265656E00646972006364006174747200FF52
:10FFF000E023E020E01DE01AE017E014E011E0004B
:00E000011F
