:1E000000E020E00BE00EE011E014E017E01AE01DE079000010A200000000000000002B
:20E00000CE020010CE04006E9F00007EE0237EE0237EE0237EE0237EE0237EE0237EE07964
:20E020007EE0793B2E2F61736D2F746573742E6865780054776F2D504920526574726F2082
:20E04000363830390A42494F53204B45524E454C20762E302E30320A436F707972696768FE
:20E06000742032303233206279204A6179204661726965730A0A4F4B00BDE218860ABDE1F9
:20E0800073B60012B70018B60013B700197F001A7F001BC610F70014CC0000FD0016FC00EE
:20E0A00016C30001FD0016108302002D157C0014CC0000FD0016B60018F60019BDE1F9BFFA
:20E0C000001ABDE1EB8620F60014ED84B6192827CDBDE1EB8620F60015ED84B6192A810D5F
:20E0E000262F3402B60012F60013BDE1F9BF001C108E193CBE001AA681A7A0BC001C2DF71D
:20E100006FA4BDE2643502BE0012BC001827022003BDE173810D261AB60018F60019BDE168
:20E12000F9F60015E701B60012B70018B60013B70019BDE1EB8620F60014ED847EE09E8E8F
:20E14000E024108E1827A680A7A026FA8607B71820B6181F818027003934168E0400862005
:20E16000F60015ED818C17FF23F935167F00127F00133934364D2762F600158D6E810A27C9
:20E1800019810D27158108272181202D4DED847C0013B60013B1180923407F0013B6001258
:20E1A000B1180A2C0F7C00122030B60013272B7A00132026B618094CC6023D8E0400308B10
:20E1C000108E0400EC81EDA18C17FF2DF78620F60015EDA1108C17FF2DF83536393416A632
:20E1E000802705BDE17320F73516393406B60012F60013BDE1F9350639340634068E0400AB
:20E2000048F618095C3D308B35065830858C17FF23038E17FE3506398602B7180086A2B7EE
:20E220000015BDE1598EE033BDE1DDB60012B70018B60013B700197F001A7F001B39860292
:20E24000B7180086A2B70015BDE1598EE076BDE1DDB60012B70018B60013B700197F001ADC
:20E260007F001B39B6193C8120277E860ABDE173BDE2EA81002742810127128102271A8166
:20E2800003271E8104272981052728202C86A2B70015BDE159BDE23E39BDE13F86028DED60
:20E2A00039B6181F81802704AD9F0010BDE23E397EE0798617B71820398EE322BDE1DD866A
:20E2C0003ABDE1738620BDE1738622BDE1738E193CBDE1DD8622BDE173860ABDE1738EE05D
:20E2E00076BDE1DD860ABDE173393434860134024F5F8E193C108EE331A68581FF271C817C
:20E3000000271A8A20A1A026035C20ED6CE45FA6A081FF2706810026F620DE6FE435023543
:20E3200034393F2053796E746178204572726F7200636C73006C6F61640065786563007267
:0BE3400065736574006578697400FF68
:10FFF000E01DE01AE017E014E011E00EE00BE00075
:00E000011F
